{
  "address": "0xD44E043225C15a717Fb0591805152E0ddfC87005",
  "abi": [
    {
      "anonymous": false,
      "inputs": [
        {
          "indexed": false,
          "internalType": "address",
          "name": "author",
          "type": "address"
        },
        {
          "indexed": false,
          "internalType": "bytes",
          "name": "data",
          "type": "bytes"
        }
      ],
      "name": "StateChange",
      "type": "event"
    },
    {
      "inputs": [
        {
          "internalType": "bytes[]",
          "name": "data_",
          "type": "bytes[]"
        }
      ],
      "name": "stateChange",
      "outputs": [],
      "stateMutability": "nonpayable",
      "type": "function"
    }
  ],
  "transactionHash": "0x6abb7e5c910defe247a6366f2604cdbef01b4b7945a1c28628beac9a81ea6875",
  "args": [],
  "numDeployments": 1,
  "solcInputHash": "56c32ba9751559d21b8d3ed0d901ef78",
  "bytecode": "0x608060405234801561001057600080fd5b506102d4806100206000396000f3fe608060405234801561001057600080fd5b506004361061002b5760003560e01c80633ec5c90914610030575b600080fd5b61004361003e3660046100c4565b610045565b005b60005b818110156100bf577f6d6116a1c6efe012563afc71498d1d3bba28c1917c6ab0e3f24906942c22b3da3384848481811061008457610084610139565b90506020028101906100969190610168565b6040516100a5939291906101d4565b60405180910390a1806100b78161023e565b915050610048565b505050565b600080602083850312156100d757600080fd5b823567ffffffffffffffff808211156100ef57600080fd5b818501915085601f83011261010357600080fd5b81358181111561011257600080fd5b8660208260051b850101111561012757600080fd5b60209290920196919550909350505050565b7f4e487b7100000000000000000000000000000000000000000000000000000000600052603260045260246000fd5b60008083357fffffffffffffffffffffffffffffffffffffffffffffffffffffffffffffffe184360301811261019d57600080fd5b83018035915067ffffffffffffffff8211156101b857600080fd5b6020019150368190038213156101cd57600080fd5b9250929050565b73ffffffffffffffffffffffffffffffffffffffff8416815260406020820152816040820152818360608301376000818301606090810191909152601f9092017fffffffffffffffffffffffffffffffffffffffffffffffffffffffffffffffe016010192915050565b60007fffffffffffffffffffffffffffffffffffffffffffffffffffffffffffffffff821415610297577f4e487b7100000000000000000000000000000000000000000000000000000000600052601160045260246000fd5b506001019056fea2646970667358221220ac7b907ec3a9d0617a8dbc2088b635a71efc4c3501513fa9c30e037b15f774c364736f6c634300080a0033",
  "devdoc": {
    "kind": "dev",
    "methods": {},
    "version": 1
  },
  "userdoc": {
    "kind": "user",
    "methods": {},
    "version": 1
  },
  "storageLayout": {
    "storage": [],
    "types": null
  }
}